{
  "_format": "hh-sol-artifact-1",
  "contractName": "NFTGame",
  "sourceName": "contracts/NFTGame.sol",
  "abi": [
    {
      "inputs": [
        {
          "internalType": "string[]",
          "name": "characterNames",
          "type": "string[]"
        },
        {
          "internalType": "string[]",
          "name": "characterImageURIs",
          "type": "string[]"
        },
        {
          "internalType": "uint256[]",
          "name": "characterHps",
          "type": "uint256[]"
        },
        {
          "internalType": "uint256[]",
          "name": "characterAttackDmgs",
          "type": "uint256[]"
        },
        {
          "internalType": "string",
          "name": "bossName",
          "type": "string"
        },
        {
          "internalType": "string",
          "name": "bossImageURI",
          "type": "string"
        },
        {
          "internalType": "uint256",
          "name": "bossHp",
          "type": "uint256"
        },
        {
          "internalType": "uint256",
          "name": "bossAttackDamage",
          "type": "uint256"
        }
      ],
      "stateMutability": "nonpayable",
      "type": "constructor"
    },
    {
      "anonymous": false,
      "inputs": [
        {
          "indexed": true,
          "internalType": "address",
          "name": "owner",
          "type": "address"
        },
        {
          "indexed": true,
          "internalType": "address",
          "name": "approved",
          "type": "address"
        },
        {
          "indexed": true,
          "internalType": "uint256",
          "name": "tokenId",
          "type": "uint256"
        }
      ],
      "name": "Approval",
      "type": "event"
    },
    {
      "anonymous": false,
      "inputs": [
        {
          "indexed": true,
          "internalType": "address",
          "name": "owner",
          "type": "address"
        },
        {
          "indexed": true,
          "internalType": "address",
          "name": "operator",
          "type": "address"
        },
        {
          "indexed": false,
          "internalType": "bool",
          "name": "approved",
          "type": "bool"
        }
      ],
      "name": "ApprovalForAll",
      "type": "event"
    },
    {
      "anonymous": false,
      "inputs": [
        {
          "indexed": true,
          "internalType": "address",
          "name": "sender",
          "type": "address"
        },
        {
          "indexed": true,
          "internalType": "uint256",
          "name": "newBossHp",
          "type": "uint256"
        },
        {
          "indexed": true,
          "internalType": "uint256",
          "name": "newPlayerHp",
          "type": "uint256"
        }
      ],
      "name": "AttackComplete",
      "type": "event"
    },
    {
      "anonymous": false,
      "inputs": [
        {
          "indexed": true,
          "internalType": "address",
          "name": "sender",
          "type": "address"
        },
        {
          "indexed": true,
          "internalType": "uint256",
          "name": "tokenId",
          "type": "uint256"
        },
        {
          "indexed": true,
          "internalType": "uint256",
          "name": "characterIndex",
          "type": "uint256"
        }
      ],
      "name": "CharacterNFTMinted",
      "type": "event"
    },
    {
      "anonymous": false,
      "inputs": [
        {
          "indexed": true,
          "internalType": "address",
          "name": "previousOwner",
          "type": "address"
        },
        {
          "indexed": true,
          "internalType": "address",
          "name": "newOwner",
          "type": "address"
        }
      ],
      "name": "OwnershipTransferred",
      "type": "event"
    },
    {
      "anonymous": false,
      "inputs": [
        {
          "indexed": true,
          "internalType": "address",
          "name": "from",
          "type": "address"
        },
        {
          "indexed": true,
          "internalType": "address",
          "name": "to",
          "type": "address"
        },
        {
          "indexed": true,
          "internalType": "uint256",
          "name": "tokenId",
          "type": "uint256"
        }
      ],
      "name": "Transfer",
      "type": "event"
    },
    {
      "inputs": [
        {
          "internalType": "address",
          "name": "to",
          "type": "address"
        },
        {
          "internalType": "uint256",
          "name": "tokenId",
          "type": "uint256"
        }
      ],
      "name": "approve",
      "outputs": [],
      "stateMutability": "nonpayable",
      "type": "function"
    },
    {
      "inputs": [],
      "name": "attackBoss",
      "outputs": [],
      "stateMutability": "nonpayable",
      "type": "function"
    },
    {
      "inputs": [
        {
          "internalType": "address",
          "name": "owner",
          "type": "address"
        }
      ],
      "name": "balanceOf",
      "outputs": [
        {
          "internalType": "uint256",
          "name": "",
          "type": "uint256"
        }
      ],
      "stateMutability": "view",
      "type": "function"
    },
    {
      "inputs": [],
      "name": "bigBoss",
      "outputs": [
        {
          "internalType": "string",
          "name": "name",
          "type": "string"
        },
        {
          "internalType": "string",
          "name": "imageURI",
          "type": "string"
        },
        {
          "internalType": "uint256",
          "name": "hp",
          "type": "uint256"
        },
        {
          "internalType": "uint256",
          "name": "maxHp",
          "type": "uint256"
        },
        {
          "internalType": "uint256",
          "name": "attackDamage",
          "type": "uint256"
        }
      ],
      "stateMutability": "view",
      "type": "function"
    },
    {
      "inputs": [],
      "name": "checkIfUserHasNFT",
      "outputs": [
        {
          "components": [
            {
              "internalType": "uint256",
              "name": "characterIndex",
              "type": "uint256"
            },
            {
              "internalType": "string",
              "name": "name",
              "type": "string"
            },
            {
              "internalType": "string",
              "name": "imageURI",
              "type": "string"
            },
            {
              "internalType": "uint256",
              "name": "hp",
              "type": "uint256"
            },
            {
              "internalType": "uint256",
              "name": "maxHp",
              "type": "uint256"
            },
            {
              "internalType": "uint256",
              "name": "attackDamage",
              "type": "uint256"
            }
          ],
          "internalType": "struct NFTGame.CharacterAttributes",
          "name": "",
          "type": "tuple"
        }
      ],
      "stateMutability": "view",
      "type": "function"
    },
    {
      "inputs": [],
      "name": "getAllDefaultCharacters",
      "outputs": [
        {
          "components": [
            {
              "internalType": "uint256",
              "name": "characterIndex",
              "type": "uint256"
            },
            {
              "internalType": "string",
              "name": "name",
              "type": "string"
            },
            {
              "internalType": "string",
              "name": "imageURI",
              "type": "string"
            },
            {
              "internalType": "uint256",
              "name": "hp",
              "type": "uint256"
            },
            {
              "internalType": "uint256",
              "name": "maxHp",
              "type": "uint256"
            },
            {
              "internalType": "uint256",
              "name": "attackDamage",
              "type": "uint256"
            }
          ],
          "internalType": "struct NFTGame.CharacterAttributes[]",
          "name": "",
          "type": "tuple[]"
        }
      ],
      "stateMutability": "view",
      "type": "function"
    },
    {
      "inputs": [
        {
          "internalType": "uint256",
          "name": "tokenId",
          "type": "uint256"
        }
      ],
      "name": "getApproved",
      "outputs": [
        {
          "internalType": "address",
          "name": "",
          "type": "address"
        }
      ],
      "stateMutability": "view",
      "type": "function"
    },
    {
      "inputs": [],
      "name": "getBigBoss",
      "outputs": [
        {
          "components": [
            {
              "internalType": "string",
              "name": "name",
              "type": "string"
            },
            {
              "internalType": "string",
              "name": "imageURI",
              "type": "string"
            },
            {
              "internalType": "uint256",
              "name": "hp",
              "type": "uint256"
            },
            {
              "internalType": "uint256",
              "name": "maxHp",
              "type": "uint256"
            },
            {
              "internalType": "uint256",
              "name": "attackDamage",
              "type": "uint256"
            }
          ],
          "internalType": "struct NFTGame.BigBoss",
          "name": "",
          "type": "tuple"
        }
      ],
      "stateMutability": "view",
      "type": "function"
    },
    {
      "inputs": [
        {
          "internalType": "address",
          "name": "owner",
          "type": "address"
        },
        {
          "internalType": "address",
          "name": "operator",
          "type": "address"
        }
      ],
      "name": "isApprovedForAll",
      "outputs": [
        {
          "internalType": "bool",
          "name": "",
          "type": "bool"
        }
      ],
      "stateMutability": "view",
      "type": "function"
    },
    {
      "inputs": [
        {
          "internalType": "uint256",
          "name": "_characterIndex",
          "type": "uint256"
        }
      ],
      "name": "mintCharacterNFT",
      "outputs": [],
      "stateMutability": "nonpayable",
      "type": "function"
    },
    {
      "inputs": [],
      "name": "name",
      "outputs": [
        {
          "internalType": "string",
          "name": "",
          "type": "string"
        }
      ],
      "stateMutability": "view",
      "type": "function"
    },
    {
      "inputs": [
        {
          "internalType": "uint256",
          "name": "",
          "type": "uint256"
        }
      ],
      "name": "nftHolderAttributes",
      "outputs": [
        {
          "internalType": "uint256",
          "name": "characterIndex",
          "type": "uint256"
        },
        {
          "internalType": "string",
          "name": "name",
          "type": "string"
        },
        {
          "internalType": "string",
          "name": "imageURI",
          "type": "string"
        },
        {
          "internalType": "uint256",
          "name": "hp",
          "type": "uint256"
        },
        {
          "internalType": "uint256",
          "name": "maxHp",
          "type": "uint256"
        },
        {
          "internalType": "uint256",
          "name": "attackDamage",
          "type": "uint256"
        }
      ],
      "stateMutability": "view",
      "type": "function"
    },
    {
      "inputs": [
        {
          "internalType": "address",
          "name": "",
          "type": "address"
        }
      ],
      "name": "nftHolders",
      "outputs": [
        {
          "internalType": "uint256",
          "name": "",
          "type": "uint256"
        }
      ],
      "stateMutability": "view",
      "type": "function"
    },
    {
      "inputs": [],
      "name": "owner",
      "outputs": [
        {
          "internalType": "address",
          "name": "",
          "type": "address"
        }
      ],
      "stateMutability": "view",
      "type": "function"
    },
    {
      "inputs": [
        {
          "internalType": "uint256",
          "name": "tokenId",
          "type": "uint256"
        }
      ],
      "name": "ownerOf",
      "outputs": [
        {
          "internalType": "address",
          "name": "",
          "type": "address"
        }
      ],
      "stateMutability": "view",
      "type": "function"
    },
    {
      "inputs": [],
      "name": "renounceOwnership",
      "outputs": [],
      "stateMutability": "nonpayable",
      "type": "function"
    },
    {
      "inputs": [],
      "name": "revive",
      "outputs": [],
      "stateMutability": "payable",
      "type": "function"
    },
    {
      "inputs": [],
      "name": "reviveBoss",
      "outputs": [],
      "stateMutability": "nonpayable",
      "type": "function"
    },
    {
      "inputs": [
        {
          "internalType": "address",
          "name": "from",
          "type": "address"
        },
        {
          "internalType": "address",
          "name": "to",
          "type": "address"
        },
        {
          "internalType": "uint256",
          "name": "tokenId",
          "type": "uint256"
        }
      ],
      "name": "safeTransferFrom",
      "outputs": [],
      "stateMutability": "nonpayable",
      "type": "function"
    },
    {
      "inputs": [
        {
          "internalType": "address",
          "name": "from",
          "type": "address"
        },
        {
          "internalType": "address",
          "name": "to",
          "type": "address"
        },
        {
          "internalType": "uint256",
          "name": "tokenId",
          "type": "uint256"
        },
        {
          "internalType": "bytes",
          "name": "data",
          "type": "bytes"
        }
      ],
      "name": "safeTransferFrom",
      "outputs": [],
      "stateMutability": "nonpayable",
      "type": "function"
    },
    {
      "inputs": [
        {
          "internalType": "address",
          "name": "operator",
          "type": "address"
        },
        {
          "internalType": "bool",
          "name": "approved",
          "type": "bool"
        }
      ],
      "name": "setApprovalForAll",
      "outputs": [],
      "stateMutability": "nonpayable",
      "type": "function"
    },
    {
      "inputs": [
        {
          "internalType": "bytes4",
          "name": "interfaceId",
          "type": "bytes4"
        }
      ],
      "name": "supportsInterface",
      "outputs": [
        {
          "internalType": "bool",
          "name": "",
          "type": "bool"
        }
      ],
      "stateMutability": "view",
      "type": "function"
    },
    {
      "inputs": [],
      "name": "symbol",
      "outputs": [
        {
          "internalType": "string",
          "name": "",
          "type": "string"
        }
      ],
      "stateMutability": "view",
      "type": "function"
    },
    {
      "inputs": [
        {
          "internalType": "uint256",
          "name": "_tokenId",
          "type": "uint256"
        }
      ],
      "name": "tokenURI",
      "outputs": [
        {
          "internalType": "string",
          "name": "",
          "type": "string"
        }
      ],
      "stateMutability": "view",
      "type": "function"
    },
    {
      "inputs": [
        {
          "internalType": "address",
          "name": "from",
          "type": "address"
        },
        {
          "internalType": "address",
          "name": "to",
          "type": "address"
        },
        {
          "internalType": "uint256",
          "name": "tokenId",
          "type": "uint256"
        }
      ],
      "name": "transferFrom",
      "outputs": [],
      "stateMutability": "nonpayable",
      "type": "function"
    },
    {
      "inputs": [
        {
          "internalType": "address",
          "name": "newOwner",
          "type": "address"
        }
      ],
      "name": "transferOwnership",
      "outputs": [],
      "stateMutability": "nonpayable",
      "type": "function"
    },
    {
      "inputs": [],
      "name": "withdraw",
      "outputs": [],
      "stateMutability": "payable",
      "type": "function"
    }
  ],
  "bytecode": "0x608060405260006007553480156200001657600080fd5b5060405162004ba538038062004ba583398101604081905262000039916200096e565b6040805180820182526008815267466967687465727360c01b6020808301918252835180850190945260078452662324a3a42a22a960c91b9084015281519192916200008891600091620006ba565b5080516200009e906001906020840190620006ba565b505050620000bb620000b5620005e360201b60201c565b620005e7565b6040805160a0810182528581526020808201869052918101849052606081018490526080810183905285519091600b91620000fc91839190890190620006ba565b506020828101518051620001179260018501920190620006ba565b50604082015181600201556060820151816003015560808201518160040155905050620002946040518060600160405280602a815260200162004b7b602a9139600b8054620001669062000a89565b80601f0160208091040260200160405190810160405280929190818152602001828054620001949062000a89565b8015620001e55780601f10620001b957610100808354040283529160200191620001e5565b820191906000526020600020905b815481529060010190602001808311620001c757829003601f168201915b5050600d54600c80549194509250620001ff915062000a89565b80601f01602080910402602001604051908101604052809291908181526020018280546200022d9062000a89565b80156200027e5780601f1062000252576101008083540402835291602001916200027e565b820191906000526020600020905b8154815290600101906020018083116200026057829003601f168201915b50505050506200063960201b620023a81760201c565b60005b8851811015620005bd5760096040518060c001604052808381526020018b8481518110620002c957620002c962000ac6565b602002602001015181526020018a8481518110620002eb57620002eb62000ac6565b602002602001015181526020018984815181106200030d576200030d62000ac6565b602002602001015181526020018984815181106200032f576200032f62000ac6565b6020026020010151815260200188848151811062000351576200035162000ac6565b6020908102919091018101519091528254600181810185556000948552938290208351600690920201908155828201518051939491936200039b93928501929190910190620006ba565b5060408201518051620003b9916002840191602090910190620006ba565b50606082015181600301556080820151816004015560a082015181600501555050600060098281548110620003f257620003f262000ac6565b90600052602060002090600602016040518060c001604052908160008201548152602001600182018054620004279062000a89565b80601f0160208091040260200160405190810160405280929190818152602001828054620004559062000a89565b8015620004a65780601f106200047a57610100808354040283529160200191620004a6565b820191906000526020600020905b8154815290600101906020018083116200048857829003601f168201915b50505050508152602001600282018054620004c19062000a89565b80601f0160208091040260200160405190810160405280929190818152602001828054620004ef9062000a89565b8015620005405780601f10620005145761010080835404028352916020019162000540565b820191906000526020600020905b8154815290600101906020018083116200052257829003601f168201915b5050505050815260200160038201548152602001600482015481526020016005820154815250509050620005a760405180606001604052806025815260200162004b56602591398260200151836060015184604001516200063960201b620023a81760201c565b50620005b560018262000adc565b905062000297565b50620005d560086200069060201b6200240a1760201c565b505050505050505062000b81565b3390565b600680546001600160a01b038381166001600160a01b0319831681179093556040519116919082907f8be0079c531659141344cd1fd0a4f28419497f9722a3daafe3b4186f6b6457e090600090a35050565b6200068a8484848460405160240162000656949392919062000b31565b60408051601f198184030181529190526020810180516001600160e01b03908116632e8d4b8d60e11b179091526200069916565b50505050565b80546001019055565b80516a636f6e736f6c652e6c6f67602083016000808483855afa5050505050565b828054620006c89062000a89565b90600052602060002090601f016020900481019282620006ec576000855562000737565b82601f106200070757805160ff191683800117855562000737565b8280016001018555821562000737579182015b82811115620007375782518255916020019190600101906200071a565b506200074592915062000749565b5090565b5b808211156200074557600081556001016200074a565b634e487b7160e01b600052604160045260246000fd5b604051601f8201601f191681016001600160401b0381118282101715620007a157620007a162000760565b604052919050565b60006001600160401b03821115620007c557620007c562000760565b5060051b60200190565b60005b83811015620007ec578181015183820152602001620007d2565b838111156200068a5750506000910152565b600082601f8301126200081057600080fd5b81516001600160401b038111156200082c576200082c62000760565b62000841601f8201601f191660200162000776565b8181528460208386010111156200085757600080fd5b6200086a826020830160208701620007cf565b949350505050565b600082601f8301126200088457600080fd5b815160206200089d6200089783620007a9565b62000776565b82815260059290921b84018101918181019086841115620008bd57600080fd5b8286015b84811015620009015780516001600160401b03811115620008e25760008081fd5b620008f28986838b0101620007fe565b845250918301918301620008c1565b509695505050505050565b600082601f8301126200091e57600080fd5b81516020620009316200089783620007a9565b82815260059290921b840181019181810190868411156200095157600080fd5b8286015b8481101562000901578051835291830191830162000955565b600080600080600080600080610100898b0312156200098c57600080fd5b88516001600160401b0380821115620009a457600080fd5b620009b28c838d0162000872565b995060208b0151915080821115620009c957600080fd5b620009d78c838d0162000872565b985060408b0151915080821115620009ee57600080fd5b620009fc8c838d016200090c565b975060608b015191508082111562000a1357600080fd5b62000a218c838d016200090c565b965060808b015191508082111562000a3857600080fd5b62000a468c838d01620007fe565b955060a08b015191508082111562000a5d57600080fd5b5062000a6c8b828c01620007fe565b60c08b015160e0909b0151999c989b509699959894979350505050565b600181811c9082168062000a9e57607f821691505b6020821081141562000ac057634e487b7160e01b600052602260045260246000fd5b50919050565b634e487b7160e01b600052603260045260246000fd5b6000821982111562000afe57634e487b7160e01b600052601160045260246000fd5b500190565b6000815180845262000b1d816020860160208601620007cf565b601f01601f19169290920160200192915050565b60808152600062000b46608083018762000b03565b828103602084015262000b5a818762000b03565b9050846040840152828103606084015262000b76818562000b03565b979650505050505050565b613fc58062000b916000396000f3fe6080604052600436106101ac5760003560e01c80638da5cb5b116100ec578063b953084e1161008a578063d4f24c5b11610064578063d4f24c5b146104a8578063e985e9c5146104bd578063f2fde38b14610506578063f8b81ef71461052657600080fd5b8063b953084e14610444578063c87b56dd14610466578063c8cf27f41461048657600080fd5b806398da4c95116100c657806398da4c95146103ac578063a22cb465146103de578063a9c32679146103fe578063b88d4fde1461042457600080fd5b80638da5cb5b1461037157806395851a651461038f57806395d89b411461039757600080fd5b80633ccfd60b1161015957806370a082311161013357806370a08231146102ec578063715018a61461031a5780637bca30e61461032f5780637df124a11461034457600080fd5b80633ccfd60b146102a457806342842e0e146102ac5780636352211e146102cc57600080fd5b8063081812fc1161018a578063081812fc1461022a578063095ea7b31461026257806323b872dd1461028457600080fd5b806301ffc9a7146101b15780630665f961146101e657806306fdde0314610208575b600080fd5b3480156101bd57600080fd5b506101d16101cc366004613456565b610546565b60405190151581526020015b60405180910390f35b3480156101f257600080fd5b506101fb6105e3565b6040516101dd91906134d2565b34801561021457600080fd5b5061021d610769565b6040516101dd9190613536565b34801561023657600080fd5b5061024a610245366004613549565b6107fb565b6040516001600160a01b0390911681526020016101dd565b34801561026e57600080fd5b5061028261027d36600461357e565b610822565b005b34801561029057600080fd5b5061028261029f3660046135a8565b610959565b6102826109d0565b3480156102b857600080fd5b506102826102c73660046135a8565b610a73565b3480156102d857600080fd5b5061024a6102e7366004613549565b610a8e565b3480156102f857600080fd5b5061030c6103073660046135e4565b610af3565b6040519081526020016101dd565b34801561032657600080fd5b50610282610b8d565b34801561033b57600080fd5b50610282610ba1565b34801561035057600080fd5b5061030c61035f3660046135e4565b60106020526000908152604090205481565b34801561037d57600080fd5b506006546001600160a01b031661024a565b610282610c62565b3480156103a357600080fd5b5061021d610df3565b3480156103b857600080fd5b506103cc6103c7366004613549565b610e02565b6040516101dd969594939291906135ff565b3480156103ea57600080fd5b506102826103f9366004613649565b610f47565b34801561040a57600080fd5b50610413610f52565b6040516101dd959493929190613685565b34801561043057600080fd5b5061028261043f3660046136de565b611084565b34801561045057600080fd5b50610459611102565b6040516101dd919061381d565b34801561047257600080fd5b5061021d610481366004613549565b6112ad565b34801561049257600080fd5b5061049b6114be565b6040516101dd919061387f565b3480156104b457600080fd5b506102826116ba565b3480156104c957600080fd5b506101d16104d8366004613892565b6001600160a01b03918216600090815260056020908152604080832093909416825291909152205460ff1690565b34801561051257600080fd5b506102826105213660046135e4565b611f5d565b34801561053257600080fd5b50610282610541366004613549565b611fea565b60006001600160e01b031982167f80ac58cd0000000000000000000000000000000000000000000000000000000014806105a957506001600160e01b031982167f5b5e139f00000000000000000000000000000000000000000000000000000000145b806105dd57507f01ffc9a7000000000000000000000000000000000000000000000000000000006001600160e01b03198316145b92915050565b6106156040518060a0016040528060608152602001606081526020016000815260200160008152602001600081525090565b600b6040518060a0016040529081600082018054610632906138c5565b80601f016020809104026020016040519081016040528092919081815260200182805461065e906138c5565b80156106ab5780601f10610680576101008083540402835291602001916106ab565b820191906000526020600020905b81548152906001019060200180831161068e57829003601f168201915b505050505081526020016001820180546106c4906138c5565b80601f01602080910402602001604051908101604052809291908181526020018280546106f0906138c5565b801561073d5780601f106107125761010080835404028352916020019161073d565b820191906000526020600020905b81548152906001019060200180831161072057829003601f168201915b505050505081526020016002820154815260200160038201548152602001600482015481525050905090565b606060008054610778906138c5565b80601f01602080910402602001604051908101604052809291908181526020018280546107a4906138c5565b80156107f15780601f106107c6576101008083540402835291602001916107f1565b820191906000526020600020905b8154815290600101906020018083116107d457829003601f168201915b5050505050905090565b600061080682612413565b506000908152600460205260409020546001600160a01b031690565b600061082d82610a8e565b9050806001600160a01b0316836001600160a01b031614156108bc5760405162461bcd60e51b815260206004820152602160248201527f4552433732313a20617070726f76616c20746f2063757272656e74206f776e6560448201527f720000000000000000000000000000000000000000000000000000000000000060648201526084015b60405180910390fd5b336001600160a01b03821614806108d857506108d881336104d8565b61094a5760405162461bcd60e51b815260206004820152603d60248201527f4552433732313a20617070726f76652063616c6c6572206973206e6f7420746f60448201527f6b656e206f776e6572206f7220617070726f76656420666f7220616c6c00000060648201526084016108b3565b6109548383612477565b505050565b61096333826124f2565b6109c55760405162461bcd60e51b815260206004820152602d60248201527f4552433732313a2063616c6c6572206973206e6f7420746f6b656e206f776e6560448201526c1c881bdc88185c1c1c9bdd9959609a1b60648201526084016108b3565b610954838383612571565b6109d8612784565b604051600090339034908381818185875af1925050503d8060008114610a1a576040519150601f19603f3d011682016040523d82523d6000602084013e610a1f565b606091505b5050905080610a705760405162461bcd60e51b815260206004820152601460248201527f4661696c656420746f2073656e6420457468657200000000000000000000000060448201526064016108b3565b50565b61095483838360405180602001604052806000815250611084565b6000818152600260205260408120546001600160a01b0316806105dd5760405162461bcd60e51b815260206004820152601860248201527f4552433732313a20696e76616c696420746f6b656e204944000000000000000060448201526064016108b3565b60006001600160a01b038216610b715760405162461bcd60e51b815260206004820152602960248201527f4552433732313a2061646472657373207a65726f206973206e6f74206120766160448201527f6c6964206f776e6572000000000000000000000000000000000000000000000060648201526084016108b3565b506001600160a01b031660009081526003602052604090205490565b610b95612784565b610b9f60006127de565b565b610ba9612784565b600e54600d5560408051606081019091526021808252610b9f9190613ec56020830139600b8054610bd9906138c5565b80601f0160208091040260200160405190810160405280929190818152602001828054610c05906138c5565b8015610c525780601f10610c2757610100808354040283529160200191610c52565b820191906000526020600020905b815481529060010190602001808311610c3557829003601f168201915b5050505050600b6002015461283d565b3360009081526010602052604090205480610cbf5760405162461bcd60e51b815260206004820152601b60248201527f596f7520646f6e2774206f776e20612046696768746572204e4654000000000060448201526064016108b3565b67016345785d8a0000341015610d175760405162461bcd60e51b815260206004820152601660248201527f596f75206d7573742070617920302e31204d415449430000000000000000000060448201526064016108b3565b6000600a6000838152602001908152602001600020905080600401548160030181905550610def604051806060016040528060368152602001613e8f60369139826001018054610d66906138c5565b80601f0160208091040260200160405190810160405280929190818152602001828054610d92906138c5565b8015610ddf5780601f10610db457610100808354040283529160200191610ddf565b820191906000526020600020905b815481529060010190602001808311610dc257829003601f168201915b505050505084846003015461289d565b5050565b606060018054610778906138c5565b600a6020526000908152604090208054600182018054919291610e24906138c5565b80601f0160208091040260200160405190810160405280929190818152602001828054610e50906138c5565b8015610e9d5780601f10610e7257610100808354040283529160200191610e9d565b820191906000526020600020905b815481529060010190602001808311610e8057829003601f168201915b505050505090806002018054610eb2906138c5565b80601f0160208091040260200160405190810160405280929190818152602001828054610ede906138c5565b8015610f2b5780601f10610f0057610100808354040283529160200191610f2b565b820191906000526020600020905b815481529060010190602001808311610f0e57829003601f168201915b5050505050908060030154908060040154908060050154905086565b610def3383836128ff565b600b80548190610f61906138c5565b80601f0160208091040260200160405190810160405280929190818152602001828054610f8d906138c5565b8015610fda5780601f10610faf57610100808354040283529160200191610fda565b820191906000526020600020905b815481529060010190602001808311610fbd57829003601f168201915b505050505090806001018054610fef906138c5565b80601f016020809104026020016040519081016040528092919081815260200182805461101b906138c5565b80156110685780601f1061103d57610100808354040283529160200191611068565b820191906000526020600020905b81548152906001019060200180831161104b57829003601f168201915b5050505050908060020154908060030154908060040154905085565b61108e33836124f2565b6110f05760405162461bcd60e51b815260206004820152602d60248201527f4552433732313a2063616c6c6572206973206e6f7420746f6b656e206f776e6560448201526c1c881bdc88185c1c1c9bdd9959609a1b60648201526084016108b3565b6110fc848484846129ce565b50505050565b60606009805480602002602001604051908101604052809291908181526020016000905b828210156112a457838290600052602060002090600602016040518060c001604052908160008201548152602001600182018054611163906138c5565b80601f016020809104026020016040519081016040528092919081815260200182805461118f906138c5565b80156111dc5780601f106111b1576101008083540402835291602001916111dc565b820191906000526020600020905b8154815290600101906020018083116111bf57829003601f168201915b505050505081526020016002820180546111f5906138c5565b80601f0160208091040260200160405190810160405280929190818152602001828054611221906138c5565b801561126e5780601f106112435761010080835404028352916020019161126e565b820191906000526020600020905b81548152906001019060200180831161125157829003601f168201915b50505050508152602001600382015481526020016004820154815260200160058201548152505081526020019060010190611126565b50505050905090565b6000818152600a60209081526040808320815160c081019092528054825260018101805460609594840191906112e2906138c5565b80601f016020809104026020016040519081016040528092919081815260200182805461130e906138c5565b801561135b5780601f106113305761010080835404028352916020019161135b565b820191906000526020600020905b81548152906001019060200180831161133e57829003601f168201915b50505050508152602001600282018054611374906138c5565b80601f01602080910402602001604051908101604052809291908181526020018280546113a0906138c5565b80156113ed5780601f106113c2576101008083540402835291602001916113ed565b820191906000526020600020905b8154815290600101906020018083116113d057829003601f168201915b505050505081526020016003820154815260200160048201548152602001600582015481525050905060006114258260600151612a4c565b905060006114368360800151612a4c565b905060006114478460a00151612a4c565b9050600061148d856020015161145c89612a4c565b87604001518787876040516020016114799695949392919061391c565b604051602081830303815290604052612af6565b90506000816040516020016114a29190613b6c565b60408051601f1981840301815291905298975050505050505050565b6114f76040518060c001604052806000815260200160608152602001606081526020016000815260200160008152602001600081525090565b33600090815260106020526040902054801561167d57600a60008281526020019081526020016000206040518060c001604052908160008201548152602001600182018054611545906138c5565b80601f0160208091040260200160405190810160405280929190818152602001828054611571906138c5565b80156115be5780601f10611593576101008083540402835291602001916115be565b820191906000526020600020905b8154815290600101906020018083116115a157829003601f168201915b505050505081526020016002820180546115d7906138c5565b80601f0160208091040260200160405190810160405280929190818152602001828054611603906138c5565b80156116505780601f1061162557610100808354040283529160200191611650565b820191906000526020600020905b81548152906001019060200180831161163357829003601f168201915b50505050508152602001600382015481526020016004820154815260200160058201548152505091505090565b6105dd6040518060c001604052806000815260200160608152602001606081526020016000815260200160008152602001600081525090565b5090565b33600090815260106020908152604080832054808452600a835292819020815160608101909252603c8083529092611791929190613f5490830139826001018054611704906138c5565b80601f0160208091040260200160405190810160405280929190818152602001828054611730906138c5565b801561177d5780601f106117525761010080835404028352916020019161177d565b820191906000526020600020905b81548152906001019060200180831161176057829003601f168201915b50505050508360030154846005015461289d565b6118696040518060400160405280601c81526020017f426f73732025732068617320257320485020616e642025732041440a00000000815250600b60000180546117da906138c5565b80601f0160208091040260200160405190810160405280929190818152602001828054611806906138c5565b80156118535780601f1061182857610100808354040283529160200191611853565b820191906000526020600020905b81548152906001019060200180831161183657829003601f168201915b5050505050600b60020154600b6004015461289d565b60008160030154116118e35760405162461bcd60e51b815260206004820152602d60248201527f4572726f723a20636861726163746572206d757374206861766520485020746f60448201527f2061747461636b20626f73732e0000000000000000000000000000000000000060648201526084016108b3565b600d546119585760405162461bcd60e51b815260206004820152602d60248201527f4572726f723a20626f7373206d757374206861766520485020746f206174746160448201527f636b206368617261637465722e0000000000000000000000000000000000000060648201526084016108b3565b611ab16040518060400160405280601381526020017f0a2573207377696e67732061742025732e2e2e000000000000000000000000008152508260010180546119a0906138c5565b80601f01602080910402602001604051908101604052809291908181526020018280546119cc906138c5565b8015611a195780601f106119ee57610100808354040283529160200191611a19565b820191906000526020600020905b8154815290600101906020018083116119fc57829003601f168201915b5050505050600b6000018054611a2e906138c5565b80601f0160208091040260200160405190810160405280929190818152602001828054611a5a906138c5565b8015611aa75780601f10611a7c57610100808354040283529160200191611aa7565b820191906000526020600020905b815481529060010190602001808311611a8a57829003601f168201915b5050505050612c4a565b6005611abd600a612caa565b1115611b59576005810154600d541015611b18576000600d5560408051808201909152601181527f54686520626f73732069732064656164210000000000000000000000000000006020820152611b1390612d17565b611c24565b6005810154600d54611b2a9190613bc7565b600d5560408051606081019091526021808252611b139190613e6e6020830139826001018054610bd9906138c5565b611c246040518060400160405280600a81526020017f2573206d69737365642100000000000000000000000000000000000000000000815250826001018054611ba1906138c5565b80601f0160208091040260200160405190810160405280929190818152602001828054611bcd906138c5565b8015611c1a5780601f10611bef57610100808354040283529160200191611c1a565b820191906000526020600020905b815481529060010190602001808311611bfd57829003601f168201915b5050505050612d73565b611cfa6040518060400160405280601381526020017f0a2573207377696e67732061742025732e2e2e00000000000000000000000000815250600b6000018054611c6d906138c5565b80601f0160208091040260200160405190810160405280929190818152602001828054611c99906138c5565b8015611ce65780601f10611cbb57610100808354040283529160200191611ce6565b820191906000526020600020905b815481529060010190602001808311611cc957829003601f168201915b5050505050836001018054611a2e906138c5565b6005611d06600a612caa565b1115611ee857600f5460038201541015611d715760008160030181905550611d6c6040518060400160405280601281526020017f506c617965722025732069732064656164210000000000000000000000000000815250826001018054611ba1906138c5565b611f26565b600f546003820154611d839190613bc7565b8160030181905550611d6c6040518060400160405280601f81526020017f426f73732061747461636b65642025732e204e65772025732068703a20257300815250826001018054611dd3906138c5565b80601f0160208091040260200160405190810160405280929190818152602001828054611dff906138c5565b8015611e4c5780601f10611e2157610100808354040283529160200191611e4c565b820191906000526020600020905b815481529060010190602001808311611e2f57829003601f168201915b5050505050836001018054611e60906138c5565b80601f0160208091040260200160405190810160405280929190818152602001828054611e8c906138c5565b8015611ed95780601f10611eae57610100808354040283529160200191611ed9565b820191906000526020600020905b815481529060010190602001808311611ebc57829003601f168201915b50505050508460030154612dd1565b611f266040518060400160405280600c81526020017f426f7373206d6973736564210000000000000000000000000000000000000000815250612d17565b6003810154600d5460405133907f32bd565ee3f2cb5ddd742bbecd6048d3e9abe90b3827a40c2b72d232e71e3c9d90600090a45050565b611f65612784565b6001600160a01b038116611fe15760405162461bcd60e51b815260206004820152602660248201527f4f776e61626c653a206e6577206f776e657220697320746865207a65726f206160448201527f646472657373000000000000000000000000000000000000000000000000000060648201526084016108b3565b610a70816127de565b600954811061203b5760405162461bcd60e51b815260206004820152601560248201527f43686172616374657220494420696e76616c69642e000000000000000000000060448201526064016108b3565b33600090815260106020526040902054156120be5760405162461bcd60e51b815260206004820152603b60248201527f596f7520616c7265616479206861766520616e204e46542e20596f752063616e60448201527f206f6e6c7920686176652031204e465420617420612074696d652e000000000060648201526084016108b3565b60006120c960085490565b90506120d53382612e33565b6040518060c00160405280838152602001600984815481106120f9576120f9613bde565b90600052602060002090600602016001018054612115906138c5565b80601f0160208091040260200160405190810160405280929190818152602001828054612141906138c5565b801561218e5780601f106121635761010080835404028352916020019161218e565b820191906000526020600020905b81548152906001019060200180831161217157829003601f168201915b50505050508152602001600984815481106121ab576121ab613bde565b906000526020600020906006020160020180546121c7906138c5565b80601f01602080910402602001604051908101604052809291908181526020018280546121f3906138c5565b80156122405780601f1061221557610100808354040283529160200191612240565b820191906000526020600020905b81548152906001019060200180831161222357829003601f168201915b505050505081526020016009848154811061225d5761225d613bde565b90600052602060002090600602016003015481526020016009848154811061228757612287613bde565b9060005260206000209060060201600401548152602001600984815481106122b1576122b1613bde565b6000918252602080832060056006909302019190910154909252838152600a8252604090208251815582820151805191926122f4926001850192909101906133b0565b50604082015180516123109160028401916020909101906133b0565b50606082015181600301556080820151816004015560a082015181600501559050506123556040518060600160405280602e8152602001613f26602e91398284612e4d565b336000908152601060205260409020819055612375600880546001019055565b6040518290829033907f4bc303fd457a97b4691b9af582ce71868a3d258638c8d4f8c60988a0f0bfb8cd90600090a45050565b6110fc848484846040516024016123c29493929190613bf4565b60408051601f198184030181529190526020810180516001600160e01b03167f5d1a971a00000000000000000000000000000000000000000000000000000000179052612ea9565b80546001019055565b6000818152600260205260409020546001600160a01b0316610a705760405162461bcd60e51b815260206004820152601860248201527f4552433732313a20696e76616c696420746f6b656e204944000000000000000060448201526064016108b3565b6000818152600460205260409020805473ffffffffffffffffffffffffffffffffffffffff19166001600160a01b03841690811790915581906124b982610a8e565b6001600160a01b03167f8c5be1e5ebec7d5bd14f71427d1e84f3dd0314c0f7b2291e5b200ac8c7c3b92560405160405180910390a45050565b6000806124fe83610a8e565b9050806001600160a01b0316846001600160a01b0316148061254557506001600160a01b0380821660009081526005602090815260408083209388168352929052205460ff165b806125695750836001600160a01b031661255e846107fb565b6001600160a01b0316145b949350505050565b826001600160a01b031661258482610a8e565b6001600160a01b0316146125e85760405162461bcd60e51b815260206004820152602560248201527f4552433732313a207472616e736665722066726f6d20696e636f72726563742060448201526437bbb732b960d91b60648201526084016108b3565b6001600160a01b0382166126635760405162461bcd60e51b8152602060048201526024808201527f4552433732313a207472616e7366657220746f20746865207a65726f2061646460448201527f726573730000000000000000000000000000000000000000000000000000000060648201526084016108b3565b6126708383836001612eca565b826001600160a01b031661268382610a8e565b6001600160a01b0316146126e75760405162461bcd60e51b815260206004820152602560248201527f4552433732313a207472616e736665722066726f6d20696e636f72726563742060448201526437bbb732b960d91b60648201526084016108b3565b6000818152600460209081526040808320805473ffffffffffffffffffffffffffffffffffffffff199081169091556001600160a01b0387811680865260038552838620805460001901905590871680865283862080546001019055868652600290945282852080549092168417909155905184937fddf252ad1be2c89b69c2b068fc378daa952ba7f163c4a11628f55a4df523b3ef91a4505050565b6006546001600160a01b03163314610b9f5760405162461bcd60e51b815260206004820181905260248201527f4f776e61626c653a2063616c6c6572206973206e6f7420746865206f776e657260448201526064016108b3565b600680546001600160a01b0383811673ffffffffffffffffffffffffffffffffffffffff19831681179093556040519116919082907f8be0079c531659141344cd1fd0a4f28419497f9722a3daafe3b4186f6b6457e090600090a35050565b61095483838360405160240161285593929190613c3e565b60408051601f198184030181529190526020810180516001600160e01b03167f5821efa100000000000000000000000000000000000000000000000000000000179052612ea9565b6110fc848484846040516024016128b79493929190613c74565b60408051601f198184030181529190526020810180516001600160e01b03167ff45d7d2c00000000000000000000000000000000000000000000000000000000179052612ea9565b816001600160a01b0316836001600160a01b031614156129615760405162461bcd60e51b815260206004820152601960248201527f4552433732313a20617070726f766520746f2063616c6c65720000000000000060448201526064016108b3565b6001600160a01b03838116600081815260056020908152604080832094871680845294825291829020805460ff191686151590811790915591519182527f17307eab39ab6107e8899845ad3d59bd9653f200f220920489ca2b5937696c31910160405180910390a3505050565b6129d9848484612571565b6129e584848484612f52565b6110fc5760405162461bcd60e51b815260206004820152603260248201527f4552433732313a207472616e7366657220746f206e6f6e20455243373231526560448201527131b2b4bb32b91034b6b83632b6b2b73a32b960711b60648201526084016108b3565b60606000612a59836130aa565b600101905060008167ffffffffffffffff811115612a7957612a796136c8565b6040519080825280601f01601f191660200182016040528015612aa3576020820181803683370190505b5090508181016020015b600019017f3031323334353637383961626364656600000000000000000000000000000000600a86061a8153600a8504945084612ae957612aee565b612aad565b509392505050565b6060815160001415612b1657505060408051602081019091526000815290565b6000604051806060016040528060408152602001613ee66040913990506000600384516002612b459190613cc3565b612b4f9190613cdb565b612b5a906004613cef565b67ffffffffffffffff811115612b7257612b726136c8565b6040519080825280601f01601f191660200182016040528015612b9c576020820181803683370190505b509050600182016020820185865187015b80821015612c08576003820191508151603f8160121c168501518453600184019350603f81600c1c168501518453600184019350603f8160061c168501518453600184019350603f8116850151845350600183019250612bad565b5050600386510660018114612c245760028114612c3757612c3f565b603d6001830353603d6002830353612c3f565b603d60018303535b509195945050505050565b610954838383604051602401612c6293929190613d0e565b60408051601f198184030181529190526020810180516001600160e01b03167f2ced7cef00000000000000000000000000000000000000000000000000000000179052612ea9565b6007805460009182612cbb83613d51565b9091555050600754604080514260208201526bffffffffffffffffffffffff193360601b1691810191909152605481019190915282906074016040516020818303038152906040528051906020012060001c6105dd9190613d6c565b610a7081604051602401612d2b9190613536565b60408051601f198184030181529190526020810180516001600160e01b03167f41304fac00000000000000000000000000000000000000000000000000000000179052612ea9565b610def8282604051602401612d89929190613d80565b60408051601f198184030181529190526020810180516001600160e01b03167f4b5c427700000000000000000000000000000000000000000000000000000000179052612ea9565b6110fc84848484604051602401612deb9493929190613dae565b60408051601f198184030181529190526020810180516001600160e01b03167f8eafb02b00000000000000000000000000000000000000000000000000000000179052612ea9565b610def82826040518060200160405280600081525061318c565b610954838383604051602401612e6593929190613df9565b60408051601f198184030181529190526020810180516001600160e01b03167fca47c4eb000000000000000000000000000000000000000000000000000000001790525b80516a636f6e736f6c652e6c6f67602083016000808483855afa5050505050565b60018111156110fc576001600160a01b03841615612f10576001600160a01b03841660009081526003602052604081208054839290612f0a908490613bc7565b90915550505b6001600160a01b038316156110fc576001600160a01b03831660009081526003602052604081208054839290612f47908490613cc3565b909155505050505050565b60006001600160a01b0384163b1561309f57604051630a85bd0160e11b81526001600160a01b0385169063150b7a0290612f96903390899088908890600401613e1e565b602060405180830381600087803b158015612fb057600080fd5b505af1925050508015612fe0575060408051601f3d908101601f19168201909252612fdd91810190613e50565b60015b613085573d80801561300e576040519150601f19603f3d011682016040523d82523d6000602084013e613013565b606091505b50805161307d5760405162461bcd60e51b815260206004820152603260248201527f4552433732313a207472616e7366657220746f206e6f6e20455243373231526560448201527131b2b4bb32b91034b6b83632b6b2b73a32b960711b60648201526084016108b3565b805181602001fd5b6001600160e01b031916630a85bd0160e11b149050612569565b506001949350505050565b6000807a184f03e93ff9f4daa797ed6e38ed64bf6a1f01000000000000000083106130f3577a184f03e93ff9f4daa797ed6e38ed64bf6a1f010000000000000000830492506040015b6d04ee2d6d415b85acef8100000000831061311f576d04ee2d6d415b85acef8100000000830492506020015b662386f26fc10000831061313d57662386f26fc10000830492506010015b6305f5e1008310613155576305f5e100830492506008015b612710831061316957612710830492506004015b6064831061317b576064830492506002015b600a83106105dd5760010192915050565b613196838361320a565b6131a36000848484612f52565b6109545760405162461bcd60e51b815260206004820152603260248201527f4552433732313a207472616e7366657220746f206e6f6e20455243373231526560448201527131b2b4bb32b91034b6b83632b6b2b73a32b960711b60648201526084016108b3565b6001600160a01b0382166132605760405162461bcd60e51b815260206004820181905260248201527f4552433732313a206d696e7420746f20746865207a65726f206164647265737360448201526064016108b3565b6000818152600260205260409020546001600160a01b0316156132c55760405162461bcd60e51b815260206004820152601c60248201527f4552433732313a20746f6b656e20616c7265616479206d696e7465640000000060448201526064016108b3565b6132d3600083836001612eca565b6000818152600260205260409020546001600160a01b0316156133385760405162461bcd60e51b815260206004820152601c60248201527f4552433732313a20746f6b656e20616c7265616479206d696e7465640000000060448201526064016108b3565b6001600160a01b0382166000818152600360209081526040808320805460010190558483526002909152808220805473ffffffffffffffffffffffffffffffffffffffff19168417905551839291907fddf252ad1be2c89b69c2b068fc378daa952ba7f163c4a11628f55a4df523b3ef908290a45050565b8280546133bc906138c5565b90600052602060002090601f0160209004810192826133de5760008555613424565b82601f106133f757805160ff1916838001178555613424565b82800160010185558215613424579182015b82811115613424578251825591602001919060010190613409565b506116b69291505b808211156116b6576000815560010161342c565b6001600160e01b031981168114610a7057600080fd5b60006020828403121561346857600080fd5b813561347381613440565b9392505050565b60005b8381101561349557818101518382015260200161347d565b838111156110fc5750506000910152565b600081518084526134be81602086016020860161347a565b601f01601f19169290920160200192915050565b602081526000825160a060208401526134ee60c08401826134a6565b90506020840151601f1984830301604085015261350b82826134a6565b9150506040840151606084015260608401516080840152608084015160a08401528091505092915050565b60208152600061347360208301846134a6565b60006020828403121561355b57600080fd5b5035919050565b80356001600160a01b038116811461357957600080fd5b919050565b6000806040838503121561359157600080fd5b61359a83613562565b946020939093013593505050565b6000806000606084860312156135bd57600080fd5b6135c684613562565b92506135d460208501613562565b9150604084013590509250925092565b6000602082840312156135f657600080fd5b61347382613562565b86815260c06020820152600061361860c08301886134a6565b828103604084015261362a81886134a6565b60608401969096525050608081019290925260a0909101529392505050565b6000806040838503121561365c57600080fd5b61366583613562565b91506020830135801515811461367a57600080fd5b809150509250929050565b60a08152600061369860a08301886134a6565b82810360208401526136aa81886134a6565b60408401969096525050606081019290925260809091015292915050565b634e487b7160e01b600052604160045260246000fd5b600080600080608085870312156136f457600080fd5b6136fd85613562565b935061370b60208601613562565b925060408501359150606085013567ffffffffffffffff8082111561372f57600080fd5b818701915087601f83011261374357600080fd5b813581811115613755576137556136c8565b604051601f8201601f19908116603f0116810190838211818310171561377d5761377d6136c8565b816040528281528a602084870101111561379657600080fd5b82602086016020830137600060208483010152809550505050505092959194509250565b805182526000602082015160c060208501526137d960c08501826134a6565b9050604083015184820360408601526137f282826134a6565b915050606083015160608501526080830151608085015260a083015160a08501528091505092915050565b6000602080830181845280855180835260408601915060408160051b870101925083870160005b8281101561387257603f198886030184526138608583516137ba565b94509285019290850190600101613844565b5092979650505050505050565b60208152600061347360208301846137ba565b600080604083850312156138a557600080fd5b6138ae83613562565b91506138bc60208401613562565b90509250929050565b600181811c908216806138d957607f821691505b602082108114156138fa57634e487b7160e01b600052602260045260246000fd5b50919050565b6000815161391281856020860161347a565b9290920192915050565b7f7b226e616d65223a20220000000000000000000000000000000000000000000081526000875161395481600a850160208c0161347a565b7f202d2d204e465420233a20000000000000000000000000000000000000000000600a918401918201528751613991816015840160208c0161347a565b7f222c20226465736372697074696f6e223a20225468697320697320616e204e46601592909101918201527f542074686174206c6574732070656f706c6520706c617920696e20746865206760358201527f616d65204d657461766572736520536c6179657221222c2022696d616765223a60558201527f202200000000000000000000000000000000000000000000000000000000000060758201528651613a41816077840160208b0161347a565b613b5e613b35613b2f613ae0613ada613ab1613aab6077888a01017f222c202261747472696275746573223a205b207b202274726169745f7479706581527f223a20224865616c746820506f696e7473222c202276616c7565223a200000006020820152603d0190565b8d613900565b7f2c20226d61785f76616c7565223a0000000000000000000000000000000000008152600e0190565b8a613900565b7f7d2c207b202274726169745f74797065223a202241747461636b2044616d616781527f65222c202276616c7565223a20000000000000000000000000000000000000006020820152602d0190565b87613900565b7f7d205d7d00000000000000000000000000000000000000000000000000000000815260040190565b9a9950505050505050505050565b7f646174613a6170706c69636174696f6e2f6a736f6e3b6261736536342c000000815260008251613ba481601d85016020870161347a565b91909101601d0192915050565b634e487b7160e01b600052601160045260246000fd5b600082821015613bd957613bd9613bb1565b500390565b634e487b7160e01b600052603260045260246000fd5b608081526000613c0760808301876134a6565b8281036020840152613c1981876134a6565b90508460408401528281036060840152613c3381856134a6565b979650505050505050565b606081526000613c5160608301866134a6565b8281036020840152613c6381866134a6565b915050826040830152949350505050565b608081526000613c8760808301876134a6565b8281036020840152613c9981876134a6565b604084019590955250506060015292915050565b634e487b7160e01b600052601260045260246000fd5b60008219821115613cd657613cd6613bb1565b500190565b600082613cea57613cea613cad565b500490565b6000816000190483118215151615613d0957613d09613bb1565b500290565b606081526000613d2160608301866134a6565b8281036020840152613d3381866134a6565b90508281036040840152613d4781856134a6565b9695505050505050565b6000600019821415613d6557613d65613bb1565b5060010190565b600082613d7b57613d7b613cad565b500690565b604081526000613d9360408301856134a6565b8281036020840152613da581856134a6565b95945050505050565b608081526000613dc160808301876134a6565b8281036020840152613dd381876134a6565b90508281036040840152613de781866134a6565b91505082606083015295945050505050565b606081526000613e0c60608301866134a6565b60208301949094525060400152919050565b60006001600160a01b03808716835280861660208401525083604083015260806060830152613d4760808301846134a6565b600060208284031215613e6257600080fd5b81516134738161344056fe25732061747461636b656420626f73732e204e657720626f73732068703a2025735265766976656420636861726163746572202573207769746820746f6b656e496420257320746f2066756c6c206865616c74682025735265766976656420626f737320257320746f2066756c6c206865616c74682025734142434445464748494a4b4c4d4e4f505152535455565758595a6162636465666768696a6b6c6d6e6f707172737475767778797a303132333435363738392b2f4d696e746564204e465420772f20746f6b656e496420257320616e6420636861726163746572496e6465782025730a506c6179657220772f206368617261637465722025732061626f757420746f2061747461636b2e2048617320257320485020616e64202573204144a26469706673582212201ac4b1827650b0ba9eb27acaf5c487671e0273e86e3b7a8b6bc76b82798320ab64736f6c63430008090033446f6e6520696e697469616c697a696e6720257320772f2048502025732c20696d67202573446f6e6520696e697469616c697a696e6720626f737320257320772f2048502025732c20696d67202573",
  "linkReferences": {},
  "deployedLinkReferences": {}
}